{
  "_format": "hh-sol-artifact-1",
  "contractName": "Loans",
  "sourceName": "contracts/Loans.sol",
  "abi": [
    {
      "inputs": [],
      "stateMutability": "nonpayable",
      "type": "constructor"
    },
    {
      "inputs": [],
      "name": "contadorSeguros",
      "outputs": [
        {
          "internalType": "uint256",
          "name": "",
          "type": "uint256"
        }
      ],
      "stateMutability": "view",
      "type": "function"
    },
    {
      "inputs": [
        {
          "internalType": "uint256",
          "name": "_montoAlquilerMensual",
          "type": "uint256"
        }
      ],
      "name": "crearSeguro",
      "outputs": [],
      "stateMutability": "nonpayable",
      "type": "function"
    },
    {
      "inputs": [
        {
          "internalType": "uint256",
          "name": "_seguroIndex",
          "type": "uint256"
        }
      ],
      "name": "ejecutarSeguro",
      "outputs": [],
      "stateMutability": "nonpayable",
      "type": "function"
    },
    {
      "inputs": [
        {
          "internalType": "uint256",
          "name": "_seguroIndex",
          "type": "uint256"
        }
      ],
      "name": "finalizarContrato",
      "outputs": [],
      "stateMutability": "nonpayable",
      "type": "function"
    },
    {
      "inputs": [
        {
          "internalType": "uint256",
          "name": "_seguroId",
          "type": "uint256"
        }
      ],
      "name": "firmarContrato",
      "outputs": [],
      "stateMutability": "payable",
      "type": "function"
    },
    {
      "inputs": [],
      "name": "getSeguros",
      "outputs": [
        {
          "components": [
            {
              "internalType": "address",
              "name": "inquilino",
              "type": "address"
            },
            {
              "internalType": "address",
              "name": "propietario",
              "type": "address"
            },
            {
              "internalType": "uint256",
              "name": "montoAlquilerMensual",
              "type": "uint256"
            },
            {
              "internalType": "uint256",
              "name": "fechaLimitePago1",
              "type": "uint256"
            },
            {
              "internalType": "uint256",
              "name": "fechaLimitePago2",
              "type": "uint256"
            },
            {
              "internalType": "uint256",
              "name": "fechaLimitePago3",
              "type": "uint256"
            },
            {
              "internalType": "enum Loans.EstadoPago",
              "name": "estadoPago1",
              "type": "uint8"
            },
            {
              "internalType": "enum Loans.EstadoPago",
              "name": "estadoPago2",
              "type": "uint8"
            },
            {
              "internalType": "enum Loans.EstadoPago",
              "name": "estadoPago3",
              "type": "uint8"
            },
            {
              "internalType": "uint256",
              "name": "fechaDeFinSeguro",
              "type": "uint256"
            },
            {
              "internalType": "uint256",
              "name": "deposito",
              "type": "uint256"
            }
          ],
          "internalType": "struct Loans.Seguro[]",
          "name": "",
          "type": "tuple[]"
        }
      ],
      "stateMutability": "view",
      "type": "function"
    },
    {
      "inputs": [
        {
          "internalType": "uint256",
          "name": "_seguroIndex",
          "type": "uint256"
        }
      ],
      "name": "pagarAlquiler",
      "outputs": [],
      "stateMutability": "payable",
      "type": "function"
    },
    {
      "inputs": [
        {
          "internalType": "uint256",
          "name": "",
          "type": "uint256"
        }
      ],
      "name": "seguros",
      "outputs": [
        {
          "internalType": "address",
          "name": "inquilino",
          "type": "address"
        },
        {
          "internalType": "address",
          "name": "propietario",
          "type": "address"
        },
        {
          "internalType": "uint256",
          "name": "montoAlquilerMensual",
          "type": "uint256"
        },
        {
          "internalType": "uint256",
          "name": "fechaLimitePago1",
          "type": "uint256"
        },
        {
          "internalType": "uint256",
          "name": "fechaLimitePago2",
          "type": "uint256"
        },
        {
          "internalType": "uint256",
          "name": "fechaLimitePago3",
          "type": "uint256"
        },
        {
          "internalType": "enum Loans.EstadoPago",
          "name": "estadoPago1",
          "type": "uint8"
        },
        {
          "internalType": "enum Loans.EstadoPago",
          "name": "estadoPago2",
          "type": "uint8"
        },
        {
          "internalType": "enum Loans.EstadoPago",
          "name": "estadoPago3",
          "type": "uint8"
        },
        {
          "internalType": "uint256",
          "name": "fechaDeFinSeguro",
          "type": "uint256"
        },
        {
          "internalType": "uint256",
          "name": "deposito",
          "type": "uint256"
        }
      ],
      "stateMutability": "view",
      "type": "function"
    }
  ],
  "bytecode": "0x6080604052600060015534801561001557600080fd5b506120fb806100256000396000f3fe60806040526004361061007b5760003560e01c8063944a13eb1161004e578063944a13eb1461010c5780639d98034014610135578063aa541dd01461017c578063f935ca13146101a55761007b565b80631b7a8220146100805780633693ef231461009c5780636542be13146100c55780637f2a5ebc146100f0575b600080fd5b61009a60048036038101906100959190611416565b6101d0565b005b3480156100a857600080fd5b506100c360048036038101906100be9190611416565b61048a565b005b3480156100d157600080fd5b506100da61081a565b6040516100e7919061169b565b60405180910390f35b61010a60048036038101906101059190611416565b610a73565b005b34801561011857600080fd5b50610133600480360381019061012e9190611416565b610ce3565b005b34801561014157600080fd5b5061015c60048036038101906101579190611416565b611009565b6040516101739b9a999897969594939291906116ea565b60405180910390f35b34801561018857600080fd5b506101a3600480360381019061019e9190611416565b6110ca565b005b3480156101b157600080fd5b506101ba611319565b6040516101c79190611795565b60405180910390f35b600154811115610215576040517f08c379a000000000000000000000000000000000000000000000000000000000815260040161020c9061180d565b60405180910390fd5b60008060008381526020019081526020016000209050600073ffffffffffffffffffffffffffffffffffffffff163373ffffffffffffffffffffffffffffffffffffffff16141561029b576040517f08c379a00000000000000000000000000000000000000000000000000000000081526004016102929061189f565b60405180910390fd5b8060010160009054906101000a900473ffffffffffffffffffffffffffffffffffffffff1673ffffffffffffffffffffffffffffffffffffffff163373ffffffffffffffffffffffffffffffffffffffff16141561032e576040517f08c379a000000000000000000000000000000000000000000000000000000000815260040161032590611931565b60405180910390fd5b600073ffffffffffffffffffffffffffffffffffffffff168160000160009054906101000a900473ffffffffffffffffffffffffffffffffffffffff1673ffffffffffffffffffffffffffffffffffffffff16146103c1576040517f08c379a00000000000000000000000000000000000000000000000000000000081526004016103b8906119c3565b60405180910390fd5b806008015481600201546103d59190611a12565b3414610416576040517f08c379a000000000000000000000000000000000000000000000000000000000815260040161040d90611ada565b60405180910390fd5b338160000160006101000a81548173ffffffffffffffffffffffffffffffffffffffff021916908373ffffffffffffffffffffffffffffffffffffffff16021790555060018160060160006101000a81548160ff02191690836002811115610481576104806114bf565b5b02179055505050565b600073ffffffffffffffffffffffffffffffffffffffff163373ffffffffffffffffffffffffffffffffffffffff1614156104fa576040517f08c379a00000000000000000000000000000000000000000000000000000000081526004016104f190611b6c565b60405180910390fd5b61050261131f565b6000816000019073ffffffffffffffffffffffffffffffffffffffff16908173ffffffffffffffffffffffffffffffffffffffff168152505033816020019073ffffffffffffffffffffffffffffffffffffffff16908173ffffffffffffffffffffffffffffffffffffffff16815250508181604001818152505062278d004261058c9190611a12565b81606001818152505062278d0081606001516105a89190611a12565b81608001818152505062278d0081608001516105c49190611a12565b8160a001818152505060008160c0019060028111156105e6576105e56114bf565b5b908160028111156105fa576105f96114bf565b5b8152505060008160e001906002811115610617576106166114bf565b5b9081600281111561062b5761062a6114bf565b5b8152505060008161010001906002811115610649576106486114bf565b5b9081600281111561065d5761065c6114bf565b5b81525050620697808160a001516106749190611a12565b81610120018181525050818161014001818152505080600080600154815260200190815260200160002060008201518160000160006101000a81548173ffffffffffffffffffffffffffffffffffffffff021916908373ffffffffffffffffffffffffffffffffffffffff16021790555060208201518160010160006101000a81548173ffffffffffffffffffffffffffffffffffffffff021916908373ffffffffffffffffffffffffffffffffffffffff16021790555060408201518160020155606082015181600301556080820151816004015560a0820151816005015560c08201518160060160006101000a81548160ff0219169083600281111561077f5761077e6114bf565b5b021790555060e08201518160060160016101000a81548160ff021916908360028111156107af576107ae6114bf565b5b02179055506101008201518160060160026101000a81548160ff021916908360028111156107e0576107df6114bf565b5b0217905550610120820151816007015561014082015181600801559050506001600081548092919061081190611b8c565b91905055505050565b6060600060015467ffffffffffffffff81111561083a57610839611bd5565b5b60405190808252806020026020018201604052801561087357816020015b61086061131f565b8152602001906001900390816108585790505b50905060005b600154811015610a6b57600080828152602001908152602001600020604051806101600160405290816000820160009054906101000a900473ffffffffffffffffffffffffffffffffffffffff1673ffffffffffffffffffffffffffffffffffffffff1673ffffffffffffffffffffffffffffffffffffffff1681526020016001820160009054906101000a900473ffffffffffffffffffffffffffffffffffffffff1673ffffffffffffffffffffffffffffffffffffffff1673ffffffffffffffffffffffffffffffffffffffff168152602001600282015481526020016003820154815260200160048201548152602001600582015481526020016006820160009054906101000a900460ff16600281111561099a576109996114bf565b5b60028111156109ac576109ab6114bf565b5b81526020016006820160019054906101000a900460ff1660028111156109d5576109d46114bf565b5b60028111156109e7576109e66114bf565b5b81526020016006820160029054906101000a900460ff166002811115610a1057610a0f6114bf565b5b6002811115610a2257610a216114bf565b5b815260200160078201548152602001600882015481525050828281518110610a4d57610a4c611c04565b5b60200260200101819052508080610a6390611b8c565b915050610879565b508091505090565b600154811115610ab8576040517f08c379a0000000000000000000000000000000000000000000000000000000008152600401610aaf9061180d565b60405180910390fd5b6000806000838152602001908152602001600020905060008060006002811115610ae557610ae46114bf565b5b8360060160019054906101000a900460ff166002811115610b0957610b086114bf565b5b1415610b22578260020154915082600401549050610b70565b60006002811115610b3657610b356114bf565b5b8360060160029054906101000a900460ff166002811115610b5a57610b596114bf565b5b1415610b6f5782600201549150826005015490505b5b80421115610bb3576040517f08c379a0000000000000000000000000000000000000000000000000000000008152600401610baa90611ca5565b60405180910390fd5b6000821115610cdd5781341015610bff576040517f08c379a0000000000000000000000000000000000000000000000000000000008152600401610bf690611d37565b60405180910390fd5b60006002811115610c1357610c126114bf565b5b8360060160019054906101000a900460ff166002811115610c3757610c366114bf565b5b1415610c6f5760018360060160016101000a81548160ff02191690836002811115610c6557610c646114bf565b5b0217905550610cdc565b60006002811115610c8357610c826114bf565b5b8360060160029054906101000a900460ff166002811115610ca757610ca66114bf565b5b1415610cdb5760018360060160026101000a81548160ff02191690836002811115610cd557610cd46114bf565b5b02179055505b5b5b50505050565b600154811115610d28576040517f08c379a0000000000000000000000000000000000000000000000000000000008152600401610d1f9061180d565b60405180910390fd5b600080600083815260200190815260200160002090508060010160009054906101000a900473ffffffffffffffffffffffffffffffffffffffff1673ffffffffffffffffffffffffffffffffffffffff163373ffffffffffffffffffffffffffffffffffffffff1614610dd0576040517f08c379a0000000000000000000000000000000000000000000000000000000008152600401610dc790611dc9565b60405180910390fd5b600280811115610de357610de26114bf565b5b8160060160009054906101000a900460ff166002811115610e0757610e066114bf565b5b14610e47576040517f08c379a0000000000000000000000000000000000000000000000000000000008152600401610e3e90611e5b565b60405180910390fd5b6000806002811115610e5c57610e5b6114bf565b5b8260060160009054906101000a900460ff166002811115610e8057610e7f6114bf565b5b1415610e925781600301549050610f24565b60006002811115610ea657610ea56114bf565b5b8260060160019054906101000a900460ff166002811115610eca57610ec96114bf565b5b1415610edc5781600401549050610f23565b60006002811115610ef057610eef6114bf565b5b8260060160029054906101000a900460ff166002811115610f1457610f136114bf565b5b1415610f2257816005015490505b5b5b6201518081610f339190611a12565b4211610f74576040517f08c379a0000000000000000000000000000000000000000000000000000000008152600401610f6b90611eed565b60405180910390fd5b600060038360020154610f879190611f3c565b8360020154610f969190611a12565b905080836008016000828254610fac9190611f6d565b925050819055504283600701819055503373ffffffffffffffffffffffffffffffffffffffff166108fc829081150290604051600060405180830381858888f19350505050158015611002573d6000803e3d6000fd5b5050505050565b60006020528060005260406000206000915090508060000160009054906101000a900473ffffffffffffffffffffffffffffffffffffffff16908060010160009054906101000a900473ffffffffffffffffffffffffffffffffffffffff16908060020154908060030154908060040154908060050154908060060160009054906101000a900460ff16908060060160019054906101000a900460ff16908060060160029054906101000a900460ff1690806007015490806008015490508b565b60015481111561110f576040517f08c379a00000000000000000000000000000000000000000000000000000000081526004016111069061180d565b60405180910390fd5b600080600083815260200190815260200160002090508060000160009054906101000a900473ffffffffffffffffffffffffffffffffffffffff1673ffffffffffffffffffffffffffffffffffffffff163373ffffffffffffffffffffffffffffffffffffffff16146111b7576040517f08c379a00000000000000000000000000000000000000000000000000000000081526004016111ae90612013565b60405180910390fd5b600160028111156111cb576111ca6114bf565b5b8160060160009054906101000a900460ff1660028111156111ef576111ee6114bf565b5b14801561123157506001600281111561120b5761120a6114bf565b5b8160060160019054906101000a900460ff16600281111561122f5761122e6114bf565b5b145b801561127257506001600281111561124c5761124b6114bf565b5b8160060160029054906101000a900460ff1660028111156112705761126f6114bf565b5b145b6112b1576040517f08c379a00000000000000000000000000000000000000000000000000000000081526004016112a8906120a5565b60405180910390fd5b600081600801549050600082600801819055504282600701819055503373ffffffffffffffffffffffffffffffffffffffff166108fc829081150290604051600060405180830381858888f19350505050158015611313573d6000803e3d6000fd5b50505050565b60015481565b604051806101600160405280600073ffffffffffffffffffffffffffffffffffffffff168152602001600073ffffffffffffffffffffffffffffffffffffffff1681526020016000815260200160008152602001600081526020016000815260200160006002811115611395576113946114bf565b5b8152602001600060028111156113ae576113ad6114bf565b5b8152602001600060028111156113c7576113c66114bf565b5b815260200160008152602001600081525090565b600080fd5b6000819050919050565b6113f3816113e0565b81146113fe57600080fd5b50565b600081359050611410816113ea565b92915050565b60006020828403121561142c5761142b6113db565b5b600061143a84828501611401565b91505092915050565b600081519050919050565b600082825260208201905092915050565b6000819050602082019050919050565b600073ffffffffffffffffffffffffffffffffffffffff82169050919050565b600061149a8261146f565b9050919050565b6114aa8161148f565b82525050565b6114b9816113e0565b82525050565b7f4e487b7100000000000000000000000000000000000000000000000000000000600052602160045260246000fd5b600381106114ff576114fe6114bf565b5b50565b6000819050611510826114ee565b919050565b600061152082611502565b9050919050565b61153081611515565b82525050565b6101608201600082015161154d60008501826114a1565b50602082015161156060208501826114a1565b50604082015161157360408501826114b0565b50606082015161158660608501826114b0565b50608082015161159960808501826114b0565b5060a08201516115ac60a08501826114b0565b5060c08201516115bf60c0850182611527565b5060e08201516115d260e0850182611527565b506101008201516115e7610100850182611527565b506101208201516115fc6101208501826114b0565b506101408201516116116101408501826114b0565b50505050565b60006116238383611536565b6101608301905092915050565b6000602082019050919050565b600061164882611443565b611652818561144e565b935061165d8361145f565b8060005b8381101561168e5781516116758882611617565b975061168083611630565b925050600181019050611661565b5085935050505092915050565b600060208201905081810360008301526116b5818461163d565b905092915050565b6116c68161148f565b82525050565b6116d5816113e0565b82525050565b6116e481611515565b82525050565b600061016082019050611700600083018e6116bd565b61170d602083018d6116bd565b61171a604083018c6116cc565b611727606083018b6116cc565b611734608083018a6116cc565b61174160a08301896116cc565b61174e60c08301886116db565b61175b60e08301876116db565b6117696101008301866116db565b6117776101208301856116cc565b6117856101408301846116cc565b9c9b505050505050505050505050565b60006020820190506117aa60008301846116cc565b92915050565b600082825260208201905092915050565b7f456c2073656775726f206e6f2065786973746500000000000000000000000000600082015250565b60006117f76013836117b0565b9150611802826117c1565b602082019050919050565b60006020820190508181036000830152611826816117ea565b9050919050565b7f456c20696e7175696c696e6f20646562652073657220756e612064697265636360008201527f696f6e2076616c69646100000000000000000000000000000000000000000000602082015250565b6000611889602a836117b0565b91506118948261182d565b604082019050919050565b600060208201905081810360008301526118b88161187c565b9050919050565b7f456c2070726f706965746172696f206e6f2070756564652073657220656c206960008201527f6e7175696c696e6f000000000000000000000000000000000000000000000000602082015250565b600061191b6028836117b0565b9150611926826118bf565b604082019050919050565b6000602082019050818103600083015261194a8161190e565b9050919050565b7f456c2073656775726f207961206861207369646f206669726d61646f20706f7260008201527f20756e20696e7175696c696e6f00000000000000000000000000000000000000602082015250565b60006119ad602d836117b0565b91506119b882611951565b604082019050919050565b600060208201905081810360008301526119dc816119a0565b9050919050565b7f4e487b7100000000000000000000000000000000000000000000000000000000600052601160045260246000fd5b6000611a1d826113e0565b9150611a28836113e0565b9250827fffffffffffffffffffffffffffffffffffffffffffffffffffffffffffffffff03821115611a5d57611a5c6119e3565b5b828201905092915050565b7f4465626520706167617220656c206465706f7369746f20696775616c20616c2060008201527f6d6f6e746f2064656c20616c7175696c6572206d656e7375616c000000000000602082015250565b6000611ac4603a836117b0565b9150611acf82611a68565b604082019050919050565b60006020820190508181036000830152611af381611ab7565b9050919050565b7f456c2070726f706965746172696f20646562652073657220756e61206469726560008201527f6363696f6e2076616c6964612e00000000000000000000000000000000000000602082015250565b6000611b56602d836117b0565b9150611b6182611afa565b604082019050919050565b60006020820190508181036000830152611b8581611b49565b9050919050565b6000611b97826113e0565b91507fffffffffffffffffffffffffffffffffffffffffffffffffffffffffffffffff821415611bca57611bc96119e3565b5b600182019050919050565b7f4e487b7100000000000000000000000000000000000000000000000000000000600052604160045260246000fd5b7f4e487b7100000000000000000000000000000000000000000000000000000000600052603260045260246000fd5b7f456c20706c617a6f2070617261207265616c697a617220656c207061676f206860008201527f612076656e6369646f2e00000000000000000000000000000000000000000000602082015250565b6000611c8f602a836117b0565b9150611c9a82611c33565b604082019050919050565b60006020820190508181036000830152611cbe81611c82565b9050919050565b7f456c206d6f6e746f2070616761646f206e6f20657320737566696369656e746560008201527f2e00000000000000000000000000000000000000000000000000000000000000602082015250565b6000611d216021836117b0565b9150611d2c82611cc5565b604082019050919050565b60006020820190508181036000830152611d5081611d14565b9050919050565b7f536f6c6f20656c2070726f706965746172696f20707565646520656a6563757460008201527f617220656c2073656775726f2e00000000000000000000000000000000000000602082015250565b6000611db3602d836117b0565b9150611dbe82611d57565b604082019050919050565b60006020820190508181036000830152611de281611da6565b9050919050565b7f456c2073656775726f206e6f2070756564652073657220656a6563757461646f60008201527f2e00000000000000000000000000000000000000000000000000000000000000602082015250565b6000611e456021836117b0565b9150611e5082611de9565b604082019050919050565b60006020820190508181036000830152611e7481611e38565b9050919050565b7f4e6f2068612070617361646f20737566696369656e7465207469656d706f206460008201527f65736465206c61206665636861206465207061676f2e00000000000000000000602082015250565b6000611ed76036836117b0565b9150611ee282611e7b565b604082019050919050565b60006020820190508181036000830152611f0681611eca565b9050919050565b7f4e487b7100000000000000000000000000000000000000000000000000000000600052601260045260246000fd5b6000611f47826113e0565b9150611f52836113e0565b925082611f6257611f61611f0d565b5b828204905092915050565b6000611f78826113e0565b9150611f83836113e0565b925082821015611f9657611f956119e3565b5b828203905092915050565b7f536f6c6f20656c20696e7175696c696e6f2070756564652066696e616c697a6160008201527f7220656c20636f6e747261746f2e000000000000000000000000000000000000602082015250565b6000611ffd602e836117b0565b915061200882611fa1565b604082019050919050565b6000602082019050818103600083015261202c81611ff0565b9050919050565b7f4e6f2073652068616e207265616c697a61646f20746f646f73206c6f7320706160008201527f676f732061207469656d706f2e00000000000000000000000000000000000000602082015250565b600061208f602d836117b0565b915061209a82612033565b604082019050919050565b600060208201905081810360008301526120be81612082565b905091905056fea264697066735822122085c44ad60c0e9967bea2d15059c382505e7bd57674236e8484e7c0ed923726dc64736f6c634300080a0033",
  "linkReferences": {},
  "deployedLinkReferences": {}
}